{
  "abi": [
    {
      "inputs": [
        {
          "internalType": "uint256",
          "name": "num1",
          "type": "uint256"
        },
        {
          "internalType": "uint256",
          "name": "num2",
          "type": "uint256"
        }
      ],
      "name": "GetGCD",
      "outputs": [
        {
          "internalType": "uint256",
          "name": "",
          "type": "uint256"
        }
      ],
      "stateMutability": "view",
      "type": "function"
    },
    {
      "inputs": [
        {
          "internalType": "uint256",
          "name": "num1",
          "type": "uint256"
        },
        {
          "internalType": "uint256",
          "name": "num2",
          "type": "uint256"
        }
      ],
      "name": "GetLCD",
      "outputs": [
        {
          "internalType": "uint256",
          "name": "",
          "type": "uint256"
        }
      ],
      "stateMutability": "view",
      "type": "function"
    }
  ],
  "bytecode": "608060405234801561001057600080fd5b50610174806100206000396000f3fe608060405234801561001057600080fd5b50600436106100365760003560e01c8063b2fa616a1461003b578063d132b93814610060575b600080fd5b61004e6100493660046100b9565b610073565b60405190815260200160405180910390f35b61004e61006e3660046100b9565b61009c565b600061007f838361009c565b61008983856100db565b6100939190610116565b90505b92915050565b60008082116100ab5782610093565b6100938261006e818661012a565b600080604083850312156100cc57600080fd5b50508035926020909101359150565b808202811582820484141761009657634e487b7160e01b600052601160045260246000fd5b634e487b7160e01b600052601260045260246000fd5b60008261012557610125610100565b500490565b60008261013957610139610100565b50069056fea264697066735822122073fee8759826635d3c7382722c27e9bf0362d7448ee11ea0a58df5c7a61b3d7164736f6c63430008140033",
  "bytecodeSha1": "b7c0dc4bfc86fc07e3ff8c88b5c4ea923c45fd85",
  "compiler": {
    "evm_version": "istanbul",
    "optimizer": {
      "enabled": true,
      "runs": 200
    },
    "version": "0.8.20+commit.a1b79de6"
  },
  "contractName": "GCD_LCD",
  "language": "Solidity",
  "natspec": {
    "kind": "dev",
    "methods": {},
    "version": 1
  },
  "opcodes": "PUSH1 0x80 PUSH1 0x40 MSTORE CALLVALUE DUP1 ISZERO PUSH2 0x10 JUMPI PUSH1 0x0 DUP1 REVERT JUMPDEST POP PUSH1 0x4 CALLDATASIZE LT PUSH2 0x36 JUMPI PUSH1 0x0 CALLDATALOAD PUSH1 0xE0 SHR DUP1 PUSH4 0xB2FA616A EQ PUSH2 0x3B JUMPI DUP1 PUSH4 0xD132B938 EQ PUSH2 0x60 JUMPI JUMPDEST PUSH1 0x0 DUP1 REVERT JUMPDEST PUSH2 0x4E PUSH2 0x49 CALLDATASIZE PUSH1 0x4 PUSH2 0xB9 JUMP JUMPDEST PUSH2 0x73 JUMP JUMPDEST PUSH1 0x40 MLOAD SWAP1 DUP2 MSTORE PUSH1 0x20 ADD PUSH1 0x40 MLOAD DUP1 SWAP2 SUB SWAP1 RETURN JUMPDEST PUSH2 0x4E PUSH2 0x6E CALLDATASIZE PUSH1 0x4 PUSH2 0xB9 JUMP JUMPDEST PUSH2 0x9C JUMP JUMPDEST PUSH1 0x0 PUSH2 0x7F DUP4 DUP4 PUSH2 0x9C JUMP JUMPDEST PUSH2 0x89 DUP4 DUP6 PUSH2 0xDB JUMP JUMPDEST PUSH2 0x93 SWAP2 SWAP1 PUSH2 0x116 JUMP JUMPDEST SWAP1 POP JUMPDEST SWAP3 SWAP2 POP POP JUMP JUMPDEST PUSH1 0x0 DUP1 DUP3 GT PUSH2 0xAB JUMPI DUP3 PUSH2 0x93 JUMP JUMPDEST PUSH2 0x93 DUP3 PUSH2 0x6E DUP2 DUP7 PUSH2 0x12A JUMP JUMPDEST PUSH1 0x0 DUP1 PUSH1 0x40 DUP4 DUP6 SUB SLT ISZERO PUSH2 0xCC JUMPI PUSH1 0x0 DUP1 REVERT JUMPDEST POP POP DUP1 CALLDATALOAD SWAP3 PUSH1 0x20 SWAP1 SWAP2 ADD CALLDATALOAD SWAP2 POP JUMP JUMPDEST DUP1 DUP3 MUL DUP2 ISZERO DUP3 DUP3 DIV DUP5 EQ OR PUSH2 0x96 JUMPI PUSH4 0x4E487B71 PUSH1 0xE0 SHL PUSH1 0x0 MSTORE PUSH1 0x11 PUSH1 0x4 MSTORE PUSH1 0x24 PUSH1 0x0 REVERT JUMPDEST PUSH4 0x4E487B71 PUSH1 0xE0 SHL PUSH1 0x0 MSTORE PUSH1 0x12 PUSH1 0x4 MSTORE PUSH1 0x24 PUSH1 0x0 REVERT JUMPDEST PUSH1 0x0 DUP3 PUSH2 0x125 JUMPI PUSH2 0x125 PUSH2 0x100 JUMP JUMPDEST POP DIV SWAP1 JUMP JUMPDEST PUSH1 0x0 DUP3 PUSH2 0x139 JUMPI PUSH2 0x139 PUSH2 0x100 JUMP JUMPDEST POP MOD SWAP1 JUMP INVALID LOG2 PUSH5 0x6970667358 0x22 SLT KECCAK256 PUSH20 0xFEE8759826635D3C7382722C27E9BF0362D7448E 0xE1 0x1E LOG0 0xA5 DUP14 CREATE2 0xC7 0xA6 SHL RETURNDATASIZE PUSH18 0x64736F6C6343000814003300000000000000 ",
  "sha1": "d03f31bcc9f7aaa3bc21f57748bd5b78e96b76bf",
  "source": "// SPDX-License-Identifier: MIT\n\npragma solidity ^0.8.0;\n\ncontract GCD_LCD {\n    function GetGCD(uint num1, uint num2) public view returns (uint){\n        return num2 > 0 ? GetGCD(num2, num1 % num2) : num1;\n    }\n\n    function GetLCD(uint num1, uint num2) public view returns (uint){\n        return num1 * num2 / GetGCD(num1, num2);\n    }\n}",
  "sourcePath": "contracts/GCD_LCD_Contract.sol",
  "type": "contract"
}